{
  "contractName": "CropWeedDetection",
  "abi": [
    {
      "anonymous": false,
      "inputs": [
        {
          "indexed": true,
          "internalType": "uint256",
          "name": "operationId",
          "type": "uint256"
        },
        {
          "indexed": false,
          "internalType": "string",
          "name": "imageHash",
          "type": "string"
        },
        {
          "indexed": false,
          "internalType": "uint256",
          "name": "areaCovered",
          "type": "uint256"
        },
        {
          "indexed": false,
          "internalType": "uint256",
          "name": "pesticideAmount",
          "type": "uint256"
        },
        {
          "indexed": false,
          "internalType": "bool",
          "name": "weedDetected",
          "type": "bool"
        },
        {
          "indexed": false,
          "internalType": "uint256",
          "name": "fieldId",
          "type": "uint256"
        },
        {
          "indexed": true,
          "internalType": "address",
          "name": "owner",
          "type": "address"
        }
      ],
      "name": "OperationRecorded",
      "type": "event"
    },
    {
      "anonymous": false,
      "inputs": [
        {
          "indexed": true,
          "internalType": "uint256",
          "name": "operationId",
          "type": "uint256"
        },
        {
          "indexed": true,
          "internalType": "address",
          "name": "owner",
          "type": "address"
        },
        {
          "indexed": false,
          "internalType": "uint256",
          "name": "pesticideAmount",
          "type": "uint256"
        }
      ],
      "name": "PesticideSprayTriggered",
      "type": "event"
    },
    {
      "inputs": [],
      "name": "operationCount",
      "outputs": [
        {
          "internalType": "uint256",
          "name": "",
          "type": "uint256"
        }
      ],
      "stateMutability": "view",
      "type": "function",
      "constant": true
    },
    {
      "inputs": [
        {
          "internalType": "uint256",
          "name": "",
          "type": "uint256"
        }
      ],
      "name": "operations",
      "outputs": [
        {
          "internalType": "string",
          "name": "imageHash",
          "type": "string"
        },
        {
          "internalType": "uint256",
          "name": "areaCovered",
          "type": "uint256"
        },
        {
          "internalType": "uint256",
          "name": "pesticideAmount",
          "type": "uint256"
        },
        {
          "internalType": "bool",
          "name": "weedDetected",
          "type": "bool"
        },
        {
          "internalType": "uint256",
          "name": "fieldId",
          "type": "uint256"
        },
        {
          "internalType": "address",
          "name": "owner",
          "type": "address"
        },
        {
          "internalType": "uint256",
          "name": "area",
          "type": "uint256"
        },
        {
          "internalType": "uint256",
          "name": "weedPercent",
          "type": "uint256"
        },
        {
          "internalType": "uint256",
          "name": "dosePerSqM",
          "type": "uint256"
        },
        {
          "internalType": "uint256",
          "name": "efficiencyFactor",
          "type": "uint256"
        },
        {
          "internalType": "uint256",
          "name": "totalPesticide",
          "type": "uint256"
        }
      ],
      "stateMutability": "view",
      "type": "function",
      "constant": true
    },
    {
      "inputs": [
        {
          "internalType": "string",
          "name": "imageHash",
          "type": "string"
        },
        {
          "internalType": "uint256",
          "name": "areaCovered",
          "type": "uint256"
        },
        {
          "internalType": "uint256",
          "name": "pesticideAmount",
          "type": "uint256"
        },
        {
          "internalType": "bool",
          "name": "weedDetected",
          "type": "bool"
        },
        {
          "internalType": "uint256",
          "name": "fieldId",
          "type": "uint256"
        }
      ],
      "name": "recordOperation",
      "outputs": [],
      "stateMutability": "nonpayable",
      "type": "function"
    },
    {
      "inputs": [
        {
          "internalType": "uint256",
          "name": "operationId",
          "type": "uint256"
        }
      ],
      "name": "sprayPesticide",
      "outputs": [],
      "stateMutability": "nonpayable",
      "type": "function"
    },
    {
      "inputs": [],
      "name": "getMyOperations",
      "outputs": [
        {
          "internalType": "uint256[]",
          "name": "",
          "type": "uint256[]"
        }
      ],
      "stateMutability": "view",
      "type": "function",
      "constant": true
    },
    {
      "inputs": [
        {
          "internalType": "uint256",
          "name": "operationId",
          "type": "uint256"
        }
      ],
      "name": "getOperationDetails",
      "outputs": [
        {
          "internalType": "string",
          "name": "imageHash",
          "type": "string"
        },
        {
          "internalType": "uint256",
          "name": "areaCovered",
          "type": "uint256"
        },
        {
          "internalType": "uint256",
          "name": "pesticideAmount",
          "type": "uint256"
        },
        {
          "internalType": "bool",
          "name": "weedDetected",
          "type": "bool"
        },
        {
          "internalType": "uint256",
          "name": "fieldId",
          "type": "uint256"
        },
        {
          "internalType": "address",
          "name": "owner",
          "type": "address"
        }
      ],
      "stateMutability": "view",
      "type": "function",
      "constant": true
    },
    {
      "inputs": [
        {
          "internalType": "uint256",
          "name": "area",
          "type": "uint256"
        },
        {
          "internalType": "uint256",
          "name": "weedPercent",
          "type": "uint256"
        },
        {
          "internalType": "uint256",
          "name": "dosePerSqM",
          "type": "uint256"
        },
        {
          "internalType": "uint256",
          "name": "efficiencyFactor",
          "type": "uint256"
        }
      ],
      "name": "calculatePesticideAmount",
      "outputs": [
        {
          "internalType": "uint256",
          "name": "",
          "type": "uint256"
        }
      ],
      "stateMutability": "pure",
      "type": "function",
      "constant": true
    }
  ],
  "bytecode": "0x608060405234801561001057600080fd5b5061139c806100206000396000f3fe608060405234801561001057600080fd5b506004361061007d5760003560e01c80633e810c561161005b5780633e810c56146100f15780634390400c14610121578063b2e9949d1461013d578063e9396608146101775761007d565b806305e03fa81461008257806323d3c142146100b757806334ac8756146100d5575b600080fd5b61009c60048036038101906100979190610b31565b610195565b6040516100ae96959493929190610e70565b60405180910390f35b6100bf610348565b6040516100cc919061100a565b60405180910390f35b6100ef60048036038101906100ea9190610b31565b61034e565b005b61010b60048036038101906101069190610b5a565b6104b3565b604051610118919061100a565b60405180910390f35b61013b60048036038101906101369190610aa2565b610593565b005b61015760048036038101906101529190610b31565b6107c9565b60405161016e9b9a99989796959493929190610ed8565b60405180910390f35b61017f6108d8565b60405161018c9190610df4565b60405180910390f35b606060008060008060008060016000898152602001908152602001600020604051806101600160405290816000820180546101cf906111f0565b80601f01602080910402602001604051908101604052809291908181526020018280546101fb906111f0565b80156102485780601f1061021d57610100808354040283529160200191610248565b820191906000526020600020905b81548152906001019060200180831161022b57829003601f168201915b5050505050815260200160018201548152602001600282015481526020016003820160009054906101000a900460ff16151515158152602001600482015481526020016005820160009054906101000a900473ffffffffffffffffffffffffffffffffffffffff1673ffffffffffffffffffffffffffffffffffffffff1673ffffffffffffffffffffffffffffffffffffffff16815260200160068201548152602001600782015481526020016008820154815260200160098201548152602001600a820154815250509050806000015181602001518260400151836060015184608001518560a001519650965096509650965096505091939550919395565b60005481565b803373ffffffffffffffffffffffffffffffffffffffff166001600083815260200190815260200160002060050160009054906101000a900473ffffffffffffffffffffffffffffffffffffffff1673ffffffffffffffffffffffffffffffffffffffff16146103f3576040517f08c379a00000000000000000000000000000000000000000000000000000000081526004016103ea90610fea565b60405180910390fd5b60006001600084815260200190815260200160002090508060030160009054906101000a900460ff1661045b576040517f08c379a000000000000000000000000000000000000000000000000000000000815260040161045290610f8a565b60405180910390fd5b3373ffffffffffffffffffffffffffffffffffffffff16837ff3b503347b3c2b95ffafed5c42333c193ab36f192cea7aa26855dcd3a7ea4cf583600201546040516104a6919061100a565b60405180910390a3505050565b600060648411156104f9576040517f08c379a00000000000000000000000000000000000000000000000000000000081526004016104f090610fca565b60405180910390fd5b606482111561053d576040517f08c379a000000000000000000000000000000000000000000000000000000000815260040161053490610faa565b60405180910390fd5b60006064858761054d919061110c565b61055791906110db565b9050600060648486610569919061110c565b61057391906110db565b905060008183610583919061110c565b9050809350505050949350505050565b6000808154809291906105a590611222565b919050555060405180610160016040528086815260200185815260200184815260200183151581526020018281526020013373ffffffffffffffffffffffffffffffffffffffff1681526020016000815260200160008152602001600081526020016000815260200160008152506001600080548152602001908152602001600020600082015181600001908051906020019061064392919061096d565b50602082015181600101556040820151816002015560608201518160030160006101000a81548160ff0219169083151502179055506080820151816004015560a08201518160050160006101000a81548173ffffffffffffffffffffffffffffffffffffffff021916908373ffffffffffffffffffffffffffffffffffffffff16021790555060c0820151816006015560e082015181600701556101008201518160080155610120820151816009015561014082015181600a0155905050600260003373ffffffffffffffffffffffffffffffffffffffff1673ffffffffffffffffffffffffffffffffffffffff16815260200190815260200160002060005490806001815401808255809150506001900390600052602060002001600090919091909150553373ffffffffffffffffffffffffffffffffffffffff166000547fe7b3140a42c5c05f36596c7a94790b9cd33d128f06459c12bffaef8a4ad74d0887878787876040516107ba959493929190610e16565b60405180910390a35050505050565b60016020528060005260406000206000915090508060000180546107ec906111f0565b80601f0160208091040260200160405190810160405280929190818152602001828054610818906111f0565b80156108655780601f1061083a57610100808354040283529160200191610865565b820191906000526020600020905b81548152906001019060200180831161084857829003601f168201915b5050505050908060010154908060020154908060030160009054906101000a900460ff16908060040154908060050160009054906101000a900473ffffffffffffffffffffffffffffffffffffffff169080600601549080600701549080600801549080600901549080600a015490508b565b6060600260003373ffffffffffffffffffffffffffffffffffffffff1673ffffffffffffffffffffffffffffffffffffffff16815260200190815260200160002080548060200260200160405190810160405280929190818152602001828054801561096357602002820191906000526020600020905b81548152602001906001019080831161094f575b5050505050905090565b828054610979906111f0565b90600052602060002090601f01602090048101928261099b57600085556109e2565b82601f106109b457805160ff19168380011785556109e2565b828001600101855582156109e2579182015b828111156109e15782518255916020019190600101906109c6565b5b5090506109ef91906109f3565b5090565b5b80821115610a0c5760008160009055506001016109f4565b5090565b6000610a23610a1e84611056565b611025565b905082815260208101848484011115610a3b57600080fd5b610a468482856111ae565b509392505050565b600081359050610a5d81611338565b92915050565b600082601f830112610a7457600080fd5b8135610a84848260208601610a10565b91505092915050565b600081359050610a9c8161134f565b92915050565b600080600080600060a08688031215610aba57600080fd5b600086013567ffffffffffffffff811115610ad457600080fd5b610ae088828901610a63565b9550506020610af188828901610a8d565b9450506040610b0288828901610a8d565b9350506060610b1388828901610a4e565b9250506080610b2488828901610a8d565b9150509295509295909350565b600060208284031215610b4357600080fd5b6000610b5184828501610a8d565b91505092915050565b60008060008060808587031215610b7057600080fd5b6000610b7e87828801610a8d565b9450506020610b8f87828801610a8d565b9350506040610ba087828801610a8d565b9250506060610bb187828801610a8d565b91505092959194509250565b6000610bc98383610dd6565b60208301905092915050565b610bde81611166565b82525050565b6000610bef82611096565b610bf981856110b9565b9350610c0483611086565b8060005b83811015610c35578151610c1c8882610bbd565b9750610c27836110ac565b925050600181019050610c08565b5085935050505092915050565b610c4b81611178565b82525050565b6000610c5c826110a1565b610c6681856110ca565b9350610c768185602086016111bd565b610c7f81611327565b840191505092915050565b6000610c976025836110ca565b91507f4e6f20776565647320646574656374656420666f722074686973206f7065726160008301527f74696f6e2e0000000000000000000000000000000000000000000000000000006020830152604082019050919050565b6000610cfd6019836110ca565b91507f496e76616c696420656666696369656e637920666163746f72000000000000006000830152602082019050919050565b6000610d3d6014836110ca565b91507f496e76616c696420776565642070657263656e740000000000000000000000006000830152602082019050919050565b6000610d7d6026836110ca565b91507f4e6f7420617574686f72697a65643a20596f7520617265206e6f74207468652060008301527f6f776e65722e00000000000000000000000000000000000000000000000000006020830152604082019050919050565b610ddf816111a4565b82525050565b610dee816111a4565b82525050565b60006020820190508181036000830152610e0e8184610be4565b905092915050565b600060a0820190508181036000830152610e308188610c51565b9050610e3f6020830187610de5565b610e4c6040830186610de5565b610e596060830185610c42565b610e666080830184610de5565b9695505050505050565b600060c0820190508181036000830152610e8a8189610c51565b9050610e996020830188610de5565b610ea66040830187610de5565b610eb36060830186610c42565b610ec06080830185610de5565b610ecd60a0830184610bd5565b979650505050505050565b6000610160820190508181036000830152610ef3818e610c51565b9050610f02602083018d610de5565b610f0f604083018c610de5565b610f1c606083018b610c42565b610f29608083018a610de5565b610f3660a0830189610bd5565b610f4360c0830188610de5565b610f5060e0830187610de5565b610f5e610100830186610de5565b610f6c610120830185610de5565b610f7a610140830184610de5565b9c9b505050505050505050505050565b60006020820190508181036000830152610fa381610c8a565b9050919050565b60006020820190508181036000830152610fc381610cf0565b9050919050565b60006020820190508181036000830152610fe381610d30565b9050919050565b6000602082019050818103600083015261100381610d70565b9050919050565b600060208201905061101f6000830184610de5565b92915050565b6000604051905081810181811067ffffffffffffffff8211171561104c5761104b6112f8565b5b8060405250919050565b600067ffffffffffffffff821115611071576110706112f8565b5b601f19601f8301169050602081019050919050565b6000819050602082019050919050565b600081519050919050565b600081519050919050565b6000602082019050919050565b600082825260208201905092915050565b600082825260208201905092915050565b60006110e6826111a4565b91506110f1836111a4565b9250826111015761110061129a565b5b828204905092915050565b6000611117826111a4565b9150611122836111a4565b9250817fffffffffffffffffffffffffffffffffffffffffffffffffffffffffffffffff048311821515161561115b5761115a61126b565b5b828202905092915050565b600061117182611184565b9050919050565b60008115159050919050565b600073ffffffffffffffffffffffffffffffffffffffff82169050919050565b6000819050919050565b82818337600083830152505050565b60005b838110156111db5780820151818401526020810190506111c0565b838111156111ea576000848401525b50505050565b6000600282049050600182168061120857607f821691505b6020821081141561121c5761121b6112c9565b5b50919050565b600061122d826111a4565b91507fffffffffffffffffffffffffffffffffffffffffffffffffffffffffffffffff8214156112605761125f61126b565b5b600182019050919050565b7f4e487b7100000000000000000000000000000000000000000000000000000000600052601160045260246000fd5b7f4e487b7100000000000000000000000000000000000000000000000000000000600052601260045260246000fd5b7f4e487b7100000000000000000000000000000000000000000000000000000000600052602260045260246000fd5b7f4e487b7100000000000000000000000000000000000000000000000000000000600052604160045260246000fd5b6000601f19601f8301169050919050565b61134181611178565b811461134c57600080fd5b50565b611358816111a4565b811461136357600080fd5b5056fea26469706673582212209e5f8f3e7a8386eaa4f0bf487a6b50e9af9f4c92492cc92aa228cf24e3000fd364736f6c63430008000033",
  "immutableReferences": {},
  "source": "// SPDX-License-Identifier: MIT\r\npragma solidity ^0.8.0;\r\n\r\ncontract CropWeedDetection {\r\n\r\n    struct Operation {\r\n        string imageHash;           // IPFS hash of the segmented image\r\n        uint256 areaCovered;        // Area covered by drone (in sq. meters)\r\n        uint256 pesticideAmount;    // Amount of pesticide sprayed (in liters)\r\n        bool weedDetected;          // Whether weeds were detected\r\n        uint256 fieldId;            // Field ID assigned to the farmer\r\n        address owner;              // Address of the field owner\r\n        uint256 area;               // Total area of the field\r\n        uint256 weedPercent;        // Percentage of weeds in the area\r\n        uint256 dosePerSqM;         // Dose per square meter\r\n        uint256 efficiencyFactor;   // Efficiency factor in percent\r\n        uint256 totalPesticide;     // Total calculated pesticide\r\n    }\r\n\r\n    uint256 public operationCount;\r\n    mapping(uint256 => Operation) public operations;\r\n    mapping(address => uint256[]) private ownerToOperations;\r\n\r\n    // Event triggered when a new operation is recorded\r\n    event OperationRecorded(\r\n        uint256 indexed operationId,\r\n        string imageHash,\r\n        uint256 areaCovered,\r\n        uint256 pesticideAmount,\r\n        bool weedDetected,\r\n        uint256 fieldId,\r\n        address indexed owner\r\n    );\r\n\r\n    // Event triggered to notify the drone system to spray pesticide\r\n    event PesticideSprayTriggered(\r\n        uint256 indexed operationId,\r\n        address indexed owner,\r\n        uint256 pesticideAmount\r\n    );\r\n\r\n    // Modifier to restrict access to the owner of a record\r\n    modifier onlyOwner(uint256 operationId) {\r\n        require(\r\n            operations[operationId].owner == msg.sender,\r\n            \"Not authorized: You are not the owner.\"\r\n        );\r\n        _;\r\n    }\r\n\r\n    /// @notice Record a drone operation after image processing and detection\r\n    function recordOperation(\r\n        string memory imageHash,\r\n        uint256 areaCovered,\r\n        uint256 pesticideAmount,\r\n        bool weedDetected,\r\n        uint256 fieldId\r\n    ) public {\r\n        operationCount++;\r\n        operations[operationCount] = Operation({\r\n            imageHash: imageHash,\r\n            areaCovered: areaCovered,\r\n            pesticideAmount: pesticideAmount,\r\n            weedDetected: weedDetected,\r\n            fieldId: fieldId,\r\n            owner: msg.sender,\r\n            area: 0,\r\n            weedPercent: 0,\r\n            dosePerSqM: 0,\r\n            efficiencyFactor: 0,\r\n            totalPesticide: 0\r\n        });\r\n\r\n        ownerToOperations[msg.sender].push(operationCount);\r\n\r\n        emit OperationRecorded(\r\n            operationCount,\r\n            imageHash,\r\n            areaCovered,\r\n            pesticideAmount,\r\n            weedDetected,\r\n            fieldId,\r\n            msg.sender\r\n        );\r\n    }\r\n\r\n    /// @notice Trigger pesticide spraying if weeds are detected\r\n    function sprayPesticide(uint256 operationId) public onlyOwner(operationId) {\r\n        Operation storage op = operations[operationId];\r\n        require(op.weedDetected, \"No weeds detected for this operation.\");\r\n        emit PesticideSprayTriggered(operationId, msg.sender, op.pesticideAmount);\r\n    }\r\n\r\n    /// @notice Get list of operation IDs owned by the sender\r\n    function getMyOperations() public view returns (uint256[] memory) {\r\n        return ownerToOperations[msg.sender];\r\n    }\r\n\r\n    /// @notice Get details of a specific operation\r\n    function getOperationDetails(uint256 operationId)\r\n        public\r\n        view\r\n        returns (\r\n            string memory imageHash,\r\n            uint256 areaCovered,\r\n            uint256 pesticideAmount,\r\n            bool weedDetected,\r\n            uint256 fieldId,\r\n            address owner\r\n        )\r\n    {\r\n        Operation memory op = operations[operationId];\r\n        return (\r\n            op.imageHash,\r\n            op.areaCovered,\r\n            op.pesticideAmount,\r\n            op.weedDetected,\r\n            op.fieldId,\r\n            op.owner\r\n        );\r\n    }\r\n\r\n    /// @notice Calculate total pesticide required based on field parameters\r\n    function calculatePesticideAmount(\r\n        uint256 area,              // Area in m\r\n        uint256 weedPercent,       \r\n        uint256 dosePerSqM,        \r\n        uint256 efficiencyFactor   \r\n    ) public pure returns (uint256) {\r\n        require(weedPercent <= 100, \"Invalid weed percent\");\r\n        require(efficiencyFactor <= 100, \"Invalid efficiency factor\");\r\n\r\n        // Formula: T = A * (W% / 100) * P * (E / 100)\r\n        uint256 weedArea = (area * weedPercent) / 100;\r\n        uint256 adjustedDose = (dosePerSqM * efficiencyFactor) / 100;\r\n        uint256 totalPesticide = weedArea * adjustedDose;\r\n\r\n        return totalPesticide;\r\n    }\r\n}\r\n",
  "sourcePath": "F:\\PROJECT\\Final_Year_project\\Blockchain_Agri\\contracts\\CropWeedDetection.sol",
  "compiler": {
    "name": "solc",
    "version": "0.8.0+commit.c7dfd78e.Emscripten.clang"
  },
  "schemaVersion": "3.4.16",
  "updatedAt": "2025-05-16T11:43:34.334Z",
  "networkType": "ethereum",
  "devdoc": {
    "kind": "dev",
    "methods": {},
    "version": 1
  },
  "userdoc": {
    "kind": "user",
    "methods": {
      "calculatePesticideAmount(uint256,uint256,uint256,uint256)": {
        "notice": "Calculate total pesticide required based on field parameters"
      },
      "getMyOperations()": {
        "notice": "Get list of operation IDs owned by the sender"
      },
      "getOperationDetails(uint256)": {
        "notice": "Get details of a specific operation"
      },
      "recordOperation(string,uint256,uint256,bool,uint256)": {
        "notice": "Record a drone operation after image processing and detection"
      },
      "sprayPesticide(uint256)": {
        "notice": "Trigger pesticide spraying if weeds are detected"
      }
    },
    "version": 1
  }
}